:100000000C9434000C9451000C9451000C94510049
:100010000C9451000C9451000C9451000C9451001C
:100020000C9451000C9451000C9451000C9451000C
:100030000C9451000C9451000C94CE000C9451007F
:100040000C9451000C9451000C9414010C94510028
:100050000C9451000C9451000C9451000C945100DC
:100060000C9451000C94510011241FBECFEFD8E026
:10007000DEBFCDBF11E0A0E0B1E0E4E8F2E002C0F5
:1000800005900D92A230B107D9F721E0A2E0B1E0CE
:1000900001C01D92A630B207E1F70E949A000C94AD
:1000A00040010C940000EAE7F0E0808180648083E6
:1000B00080917A0084FFFCCFEAE7F0E080818061E4
:1000C00080838091790090E00895ECE7F0E08081F2
:1000D00083668083EAE7F0E0808187688083EEE7CB
:1000E000F0E08081886080830895E0E8F0E080811E
:1000F000816F8083E1E8F0E080818A6080830895E9
:1001000016BC84B5826084BD85B5826085BD8BE9EF
:1001100087BDEEE6F0E0808182608083089590E004
:1001200090938B0080938A0070E0709389006093B5
:100130008800089584B1866284B987B1877F87B9C2
:100140000E9465000E9480000E94750087E60E9460
:1001500024010E942E010E9434010E943A017894E9
:10016000D0E0C0E0809100018534E1F30E945300AB
:100170008093050190910001973451F0923519F068
:10018000923439F403C08093020103C0D82F01C018
:10019000C82F6D2F8C2F0E948F00E4CF1F920F92DB
:1001A0000FB60F9211242F933F934F935F936F934A
:1001B0007F938F939F93AF93BF93EF93FF930E948F
:1001C000F200FF91EF91BF91AF919F918F917F913D
:1001D0006F915F914F913F912F910F900FBE0F90B4
:1001E0001F901895809103019091040101969093BE
:1001F0000401809303018F3F910520F010920401C8
:10020000109203018091020190E02091030130914E
:1002100004012817390720F485B18F7D85B9089529
:1002200085B1806285B908951F920F920FB60F9223
:1002300011248F938091C600809300018F910F90BD
:100240000FBE0F901F9018951092C10096E09093EA
:10025000C2001092C5008093C4000895E1ECF0E064
:100260008081886080830895E1ECF0E08081806186
:1002700080830895E1ECF0E08081806880830895B8
:04028000F894FFCF20
:02028400450033
:00000001FF
