S02700005450342D454E5452454741424C452D4752414349414E4F2D5A414E455454492E7372656362
S11300000C9434000C9451000C9451000C94510045
S11300100C9451000C9451000C9451000C94510018
S11300200C9451000C9451000C9451000C94510008
S11300300C9451000C9451000C9494000C945100B5
S11300400C9451000C9451000C94DA000C9451005F
S11300500C9451000C9451000C9451000C945100D8
S11300600C9451000C94510011241FBECFEFD8E022
S1130070DEBFCDBF11E0A0E0B1E0E0E1F2E002C0FC
S113008005900D92A230B107D9F721E0A2E0B1E0CA
S113009001C01D92A530B207E1F70E9483000C94C1
S11300A006010C940000E0E8F0E08081816F808319
S11300B0E1E8F0E080818B608083089516BC84B50C
S11300C0826084BD85B5826085BD8BE987BDEEE61F
S11300D0F0E0808182608083089587E60E94EA00D0
S11300E00E94F4000E94FA000E940001089587BD56
S11300F070E070938B0060938A0050E05093890005
S113010040938800089584B1866284B90E945E0099
S11301100E9453000E946D007894809100014FEF7B
S11301206FEF0E947700F9CF1F920F920FB60F92D4
S113013011242F933F934F935F936F937F938F93E8
S11301409F93AF93BF93EF93FF930E94B800FF91E7
S1130150EF91BF91AF919F918F917F916F915F913B
S11301604F913F912F910F900FBE0F901F901895B4
S11301708091020190910301019690930301809371
S113018002018F3F910520F01092030110920201A9
S11301908091000190E02091020130910301281721
S11301A0390720F485B18F7D85B9089585B18062C2
S11301B085B908951F920F920FB60F9211248F9351
S11301C08091C600809304018F910F900FBE0F9011
S11301D01F9018951092C10096E09093C20010925F
S11301E0C5008093C4000895E1ECF0E0808188604C
S11301F080830895E1ECF0E080818061808308953C
S1130200E1ECF0E08081806880830895F894FFCF6A
S1050210FF00E9
S9030000FC
