S02700005450342D454E5452454741424C452D4752414349414E4F2D5A414E455454492E7372656362
S11300000C9434000C9451000C9451000C94510045
S11300100C9451000C9451000C9451000C94510018
S11300200C9451000C9451000C9451000C94510008
S11300300C9451000C9451000C9494000C945100B5
S11300400C9451000C9451000C9451000C945100E8
S11300500C9451000C9451000C9451000C945100D8
S11300600C9451000C94510011241FBECFEFD8E022
S1130070DEBFCDBF11E0A0E0B1E0E2EBF1E002C0F1
S113008005900D92A230B107D9F721E0A2E0B1E0CA
S113009001C01D92A430B207E1F70E9462000C94E3
S11300A0D7000C94000016BC84B5826084BD85B56D
S11300B0826085BD8BE987BDEEE6F0E080818260D9
S11300C08083089584B1806284B90E94530087E6D6
S11300D00E94BB000E94C5000E94CB000E94D10078
S11300E07894FFCF8091020190910301019690933F
S11300F00301809302018F3F910520F010920301C8
S1130100109202018091000190E02091020130914F
S113011003012817390720F485B1806285B9089551
S113012085B18F7D85B908951F920F920FB60F92F6
S113013011242F933F934F935F936F937F938F93E8
S11301409F93AF93BF93EF93FF938091000190E04F
S11301500E947200FF91EF91BF91AF919F918F9197
S11301607F916F915F914F913F912F910F900FBEAF
S11301700F901F9018951092C10096E09093C200C2
S11301801092C5008093C4000895E1ECF0E08081F2
S1130190886080830895E1ECF0E080818061808351
S11301A00895E1ECF0E08081806880830895F894FC
S10501B0FFCF7B
S10501B2FA004D
S9030000FC
